:100E2000494E495449414C495A494E472047534D30
:100E3000000A000D0041540041542B434D47463DEC
:100E4000310041542B434D47533D222B3931383922
:100E5000383930393731303022004F425354414312
:100E60004C452041484541442E2053544F50205476
:100E7000484520545241494E00534D532053454E4E
:100E800054004F42535441434C452041484541444E
:100E90000053544F502054484520545241494E006D
:060EC700C2818F90D2826F
:100ECD00E4FFFEE4FDFC0DBD00010CBC13F8BD8874
:0C0EDD00F50FBF00010EEF640F4E70E730
:010EE90022E6
:100CE00078247C007D007BFF7A0E79827E007F0F66
:100CF000120C2C78337C007D007BFF7A0E79917E7C
:100D0000007F0F120C2CD2A07F38120EF67F01123A
:100D10000EF67F0C120EF67F80120EF67F06120E74
:100D2000F630A003020E1F758920758DFD75985051
:100D3000D28ED2997BFF7A0E79201208627BFF7ADD
:100D40000E79311208627BFF7A0E79331208627BCA
:100D5000FF7A0E79351208627BFF7A0E793112081C
:100D6000627BFF7A0E7933120862120ECD7BFF7A16
:100D70000E79381208627BFF7A0E79311208627B95
:100D8000FF7A0E7933120862120ECD7BFF7A0E794C
:100D9000421208627BFF7A0E79311208627BFF7A79
:100DA0000E7933120862120ECD7BFF7A0E795A1239
:100DB0000862120ECD7BFF7A0E79311208627BFF3A
:100DC0007A0E79311208627BFF7A0E79311208624D
:100DD0007BFF7A0E7979120862E4F522F5237424F8
:100DE0002523F8E6FF600D120EFE0523E5237002B1
:100DF000052280EA7FC0120EF6E4F522F523743353
:100E00002523F8E6FF600D120EFE0523E523700290
:0F0E1000052280EA120ECD75991A3099FDC2990C
:010E1F0022B0
:080EF600C280120EC7C2822265
:080EFE00D280120EC7C282224D
:03000000020EEA03
:0C0EEA00787FE4F6D8FD758155020CE01D
:100B5C00E709F608DFFA8046E709F208DFFA803E7B
:100B6C0088828C83E709F0A3DFFA8032E309F60868
:100B7C00DFFA8078E309F208DFFA807088828C83D0
:100B8C00E309F0A3DFFA806489828A83E0A3F60884
:100B9C00DFFA805889828A83E0A3F208DFFA804C5E
:100BAC0080D280FA80C680D4806980F28033801035
:100BBC0080A680EA809A80A880DA80E280CA80339E
:100BCC0089828A83ECFAE493A3C8C582C8CCC58316
:100BDC00CCF0A3C8C582C8CCC583CCDFE9DEE780E6
:100BEC000D89828A83E493A3F608DFF9ECFAA9F065
:100BFC00EDFB2289828A83ECFAE0A3C8C582C8CCBB
:100C0C00C583CCF0A3C8C582C8CCC583CCDFEADED3
:100C1C00E880DB89828A83E493A3F208DFF980CC35
:100C2C0088F0EF60010E4E60C388F0ED2402B4042E
:100C3C000050B9F582EB2402B4040050AF232345D5
:060C4C008223900BAC7343
:10080000E5512445F8E60551227842300702784543
:10081000E475F001120CAA020C522000EB7F2ED2DC
:10082000008018EF540F2490D43440D4FF30040BD0
:10083000EF24BFB41A0050032461FFE55260021593
:10084000520555E5557002055430070D7842E475A0
:10085000F001120CAAEF020C98020EA07403D2074A
:100860008003E4C207F5518B428A438944E4F55280
:10087000F554F555E55260077F2012083B80F57569
:1008800053FFC201C200C202C203C205C206C208AF
:10089000120809FF700D3007057F0012084CAF5594
:1008A000AE5422B4255FC2D5C204120809FF24D079
:1008B000B40A00501A75F00A785230D50508B6FF10
:1008C0000106C6A426F620D5047002D20380D924DE
:1008D000CFB41A00EF5004C2E5D204020A4CD20190
:1008E00080C6D20080C0D20280BCD2D580BAD205E8
:1008F00080B47F2012083B2002077401B5520040EB
:10090000F1120800FF12083B020874D208D20680D8
:1009100095120800FB120800FA120800F94A4B7001
:1009200006791D7A0B7BFF20022EE552602A7E009D
:100930008E82758300120C6B60060EEE655370F0AC
:10094000C2D5EBC0E0EAC0E0E9C0E0EE120A93D005
:10095000E0F9D0E0FAD0E0FB120C52FF60AAEBC045
:10096000E0EAC0E0E9C0E012083BD0E02401F9D0A1
:10097000E03400FAD0E0FBE5530460DCD553D980C5
:10098000877BFF7A0A798FD202809C791080027966
:1009900008C206C2088008D2D5790A8004790AC242
:1009A000D5E553047002F553E4FAFDFEFF1208008A
:1009B000FC7B08200113120800FD7B1030000A1296
:1009C0000800FE120800FF7B20EC3382D592D55040
:1009D00013C3E43000069FFFE49EFEE42001039D64
:1009E000FDE49CFCE4CBF8C201EC700CCFCECDCC86
:1009F000E824F8F870F38017C3EF33FFEE33FEED11
:100A000033FDEC33FCEB33FB994002FB0FD8E9EBF1
:100A1000300105F8D0E0C448B201C0E00AEC4D4E08
:100A20004F78207B0070C2EAB5530040BCC0E01292
:100A30000A95D0F0D0E0200104C4C0E0C4B201C0E7
:100A4000F0120824D0F0D5F0EB020874120CBA09A9
:100A50001153098B5808E24C08DE42098F4F099761
:0F0A60004409974908F743099D550981460981C3
:100A6F00450981470B3D5008E62D08EA2E090D2B4D
:100A7F0008EE23090B200B262A08A64800000905BB
:100A8F003F3F3F00790AA2D5200314300509B91062
:100A9F00020404B9080104A2D52006025001042063
:100AAF0002689202B552005034C0E07F2030031923
:100ABF007F30A20272067205500F120AECC202C2F8
:100ACF0006C205C2087F30800F300503E9C0E0126F
:100ADF00083B300503D0E0F9D0E0B552CC30051714
:100AEF007F30B9100C12083B7F583004077F788095
:100AFF0003B9080312083B3002057F2D02083B7F24
:100B0F00202008F87F2B2006F322920280CF286E38
:100B1F00756C6C2900D2011208003001F8C20178FF
:100B2F005230D50108F60208A62D50434958120835
:100B3F00002403B405004001E4900B389312082CF5
:0D0B4F00743A12082CD20375520402098B6F
:100C5200BB010689828A83E0225002E722BBFE02A0
:090C6200E32289828A83E49322D3
:100C6B00BB010CE58229F582E5833AF583E022503E
:100C7B0006E92582F8E622BBFE06E92582F8E22288
:0D0C8B00E58229F582E5833AF583E49322A2
:100C9800BB010689828A83F0225002F722BBFE013B
:020CA800F32235
:100CAA00FAE6FB0808E6F925F0F618E6CA3AF6224B
:100CBA00D083D082F8E4937012740193700DA3A3C9
:100CCA0093F8740193F5828883E4737402936860DD
:060CDA00EFA3A3A380DFDD
:100EA000EFB40A07740D120EAB740A309811A899AA
:100EB000B8130CC2983098FDA899C298B811F630B2
:070EC00099FDC299F599228A
:00000001FF
