:100B10005241494C5741592047415445004F504597
:100B20004E4544204E4F5700545241494E204152A9
:100B3000524956494E47004741544520434C4F5374
:100B4000454400535441525420594F555200454E8C
:100B500047494E450047415445204F50454E454476
:010B60000094
:10080000750800750901780A7C007D007BFF7A0B72
:1008100079107E007F0D120AEA78177C007D007B3C
:10082000FF7A0B791D7E007F0B120AEA78227C008A
:100830007D007BFF7A0B79287E007F0F120AEA7811
:10084000317C007D007BFF7A0B79377E007F0C12B4
:100850000AEA783D7C007D007BFF7A0B79437E00BD
:100860007F0B120AEA78487C007D007BFF7A0B79C7
:100870004E7E007F07120AEA784F7C007D007BFFE6
:100880007A0B79557E007F0C120AEAE4F5A0F5B0E8
:100890007F38120BA87F01120BA87F0C120BA87FC8
:1008A00083120BA87F06120BA8E4F55BF55C740AB3
:1008B000255CF8E6FF600D120BB0055CE55C70EEA0
:1008C000055B80EA7FC3120BA8E4F55BF55C741747
:1008D000255CF8E6FF600D120BB0055CE55C70EE80
:1008E000055B80EA20B60920B7067E007F01800400
:1008F0007E007F00EF64014E70EA30B67BE509644C
:1009000001450870737F01120BA8C2937F0A7E0015
:10091000120B6BD2937F647E00120B6BD280C2816C
:100920007F1E7E00120B6BE4F55BF55C7422255C88
:10093000F8E6FF600D120BB0055CE55C70EE055B40
:1009400080EA7FC3120BA8E4F55BF55C7431255C8B
:10095000F8E6FF600D120BB0055CE55C70EE055B20
:1009600080EA7F647E00120B6BC280C28120B6FDDC
:10097000E4F508F5090208E420B7030208E4E509F4
:10098000450860030208E47F01120BA87F83120B65
:10099000A8E4F55BF55C743D255CF8E6FF600D129C
:1009A0000BB0055CE55C70EE055B80EA7FC5120B61
:1009B000A8E4F55BF55C7448255CF8E6FF600D1271
:1009C0000BB0055CE55C70EE055B80EA7F967E000F
:1009D000120B6BC280D2817F647E00120B6B7F0191
:1009E000120BA87F83120BA8E4F55BF55C744F250E
:1009F0005CF8E6FF600D120BB0055CE55C70EE057F
:100A00005B80EA7F467E00120B6BC280C28120B7FA
:0A0A1000FD7508007509010208E4F5
:0A0B6100C2918FA0D2927F147E0093
:100B6B00D3EF9400EE6480948040257DFAEDD3940E
:100B7B00007480948040031D80F37DF0EDD39400CE
:100B8B007480948040031D80F3EF1F70D31E80D0C0
:010B9B002237
:080BA800C290120B61C29222FF
:080BB000D290120B61C29222E7
:03000000020B9C54
:0C0B9C00787FE4F6D8FD75815C0208004B
:100A1A00E709F608DFFA8046E709F208DFFA803EBE
:100A2A0088828C83E709F0A3DFFA8032E309F608AB
:100A3A00DFFA8078E309F208DFFA807088828C8313
:100A4A00E309F0A3DFFA806489828A83E0A3F608C7
:100A5A00DFFA805889828A83E0A3F208DFFA804CA1
:100A6A0080D280FA80C680D4806980F28033801078
:100A7A0080A680EA809A80A880DA80E280CA8033E1
:100A8A0089828A83ECFAE493A3C8C582C8CCC58359
:100A9A00CCF0A3C8C582C8CCC583CCDFE9DEE78029
:100AAA000D89828A83E493A3F608DFF9ECFAA9F0A8
:100ABA00EDFB2289828A83ECFAE0A3C8C582C8CCFE
:100ACA00C583CCF0A3C8C582C8CCC583CCDFEADE17
:100ADA00E880DB89828A83E493A3F208DFF980CC79
:100AEA0088F0EF60010E4E60C388F0ED2402B40472
:100AFA000050B9F582EB2402B4040050AF23234519
:060B0A008223900A6A73C9
:00000001FF
