:03000000020B9858
:0C0B9800787FE4F6D8FD75815802080053
:100B10005241494C574159204741544500434C4F9D
:100B200053454400545241494E204152524956497E
:100B30004E47004741544520434C4F5345440053D2
:100B40005441525420594F555200454E47494E4545
:0D0B50000047415445204F50454E4544009C
:10080000750800750901780A7C007D007BFF7A0B72
:1008100079107E007F0D120AEA78177C007D007B3C
:10082000FF7A0B791D7E007F07120AEA781E7C0092
:100830007D007BFF7A0B79247E007F0F120AEA7815
:100840002D7C007D007BFF7A0B79337E007F0C12BC
:100850000AEA78397C007D007BFF7A0B793F7E00C5
:100860007F0B120AEA78447C007D007BFF7A0B79CB
:100870004A7E007F07120AEA784B7C007D007BFFEE
:100880007A0B79517E007F0C120AEAE4F5A0F5B0EC
:100890007F38120BA47F01120BA47F0C120BA47FD4
:1008A00083120BA47F06120BA4E4F557F558740AC3
:1008B0002558F8E6FF600D120BAC0558E55870EEB0
:1008C000055780EA7FC3120BA4E4F557F558741757
:1008D0002558F8E6FF600D120BAC0558E55870EE90
:1008E000055780EA20B60920B7067E007F01800404
:1008F0007E007F00EF64014E70EA30B67BE509644C
:1009000001450870737F01120BA4C2937F0A7E0019
:10091000120B67D2937F647E00120B67D280C28174
:100920007F1E7E00120B67E4F557F558741E25589C
:10093000F8E6FF600D120BAC0558E55870EE055750
:1009400080EA7FC3120BA4E4F557F558742D25589F
:10095000F8E6FF600D120BAC0558E55870EE055730
:1009600080EA7F647E00120B67C280C28120B6FDE0
:10097000E4F508F5090208E420B7030208E4E509F4
:10098000450860030208E47F01120BA47F83120B69
:10099000A4E4F557F55874392558F8E6FF600D12B0
:1009A0000BAC0558E55870EE055780EA7FC5120B71
:1009B000A4E4F557F55874442558F8E6FF600D1285
:1009C0000BAC0558E55870EE055780EA7F967E001F
:1009D000120B67C280D2817F647E00120B677F0199
:1009E000120BA47F83120BA4E4F557F558744B2522
:1009F00058F8E6FF600D120BAC0558E55870EE058F
:100A00005780EA7F467E00120B67C280C28120B702
:0A0A1000FD7508007509010208E4F5
:0A0B5D00C2918FA0D2927F147E0097
:100B6700D3EF9400EE6480948040257DFAEDD39412
:100B7700007480948040031D80F37DF0EDD39400D2
:100B87007480948040031D80F3EF1F70D31E80D0C4
:010B9700223B
:080BA400C290120B5DC2922207
:080BAC00D290120B5DC29222EF
:100A1A00E709F608DFFA8046E709F208DFFA803EBE
:100A2A0088828C83E709F0A3DFFA8032E309F608AB
:100A3A00DFFA8078E309F208DFFA807088828C8313
:100A4A00E309F0A3DFFA806489828A83E0A3F608C7
:100A5A00DFFA805889828A83E0A3F208DFFA804CA1
:100A6A0080D280FA80C680D4806980F28033801078
:100A7A0080A680EA809A80A880DA80E280CA8033E1
:100A8A0089828A83ECFAE493A3C8C582C8CCC58359
:100A9A00CCF0A3C8C582C8CCC583CCDFE9DEE78029
:100AAA000D89828A83E493A3F608DFF9ECFAA9F0A8
:100ABA00EDFB2289828A83ECFAE0A3C8C582C8CCFE
:100ACA00C583CCF0A3C8C582C8CCC583CCDFEADE17
:100ADA00E880DB89828A83E493A3F208DFF980CC79
:100AEA0088F0EF60010E4E60C388F0ED2402B40472
:100AFA000050B9F582EB2402B4040050AF23234519
:060B0A008223900A6A73C9
:00000001FF
